{
  "contractName": "Funder",
  "abi": [
    {
      "inputs": [],
      "name": "body",
      "outputs": [
        {
          "internalType": "uint256",
          "name": "age",
          "type": "uint256"
        },
        {
          "internalType": "string",
          "name": "name",
          "type": "string"
        },
        {
          "internalType": "string",
          "name": "place",
          "type": "string"
        }
      ],
      "stateMutability": "view",
      "type": "function"
    },
    {
      "inputs": [
        {
          "internalType": "uint256",
          "name": "_age",
          "type": "uint256"
        },
        {
          "internalType": "string",
          "name": "_name",
          "type": "string"
        },
        {
          "internalType": "string",
          "name": "_place",
          "type": "string"
        }
      ],
      "name": "Get",
      "outputs": [],
      "stateMutability": "nonpayable",
      "type": "function"
    }
  ],
  "bytecode": "0x608060405234801561001057600080fd5b5061080a806100206000396000f3fe608060405234801561001057600080fd5b50600436106100365760003560e01c806310ceb1041461003b578063364497e414610057575b600080fd5b6100556004803603810190610050919061038f565b610077565b005b61005f6100d7565b60405161006e939291906104b1565b60405180910390f35b6000604051806060016040528085815260200184815260200183815250905080600080820151816000015560208201518160010190816100b79190610702565b5060408201518160020190816100cd9190610702565b5090505050505050565b60008060000154908060010180546100ee90610525565b80601f016020809104026020016040519081016040528092919081815260200182805461011a90610525565b80156101675780601f1061013c57610100808354040283529160200191610167565b820191906000526020600020905b81548152906001019060200180831161014a57829003601f168201915b50505050509080600201805461017c90610525565b80601f01602080910402602001604051908101604052809291908181526020018280546101a890610525565b80156101f55780601f106101ca576101008083540402835291602001916101f5565b820191906000526020600020905b8154815290600101906020018083116101d857829003601f168201915b5050505050905083565b6000604051905090565b600080fd5b600080fd5b6000819050919050565b61022681610213565b811461023157600080fd5b50565b6000813590506102438161021d565b92915050565b600080fd5b600080fd5b6000601f19601f8301169050919050565b7f4e487b7100000000000000000000000000000000000000000000000000000000600052604160045260246000fd5b61029c82610253565b810181811067ffffffffffffffff821117156102bb576102ba610264565b5b80604052505050565b60006102ce6101ff565b90506102da8282610293565b919050565b600067ffffffffffffffff8211156102fa576102f9610264565b5b61030382610253565b9050602081019050919050565b82818337600083830152505050565b600061033261032d846102df565b6102c4565b90508281526020810184848401111561034e5761034d61024e565b5b610359848285610310565b509392505050565b600082601f83011261037657610375610249565b5b813561038684826020860161031f565b91505092915050565b6000806000606084860312156103a8576103a7610209565b5b60006103b686828701610234565b935050602084013567ffffffffffffffff8111156103d7576103d661020e565b5b6103e386828701610361565b925050604084013567ffffffffffffffff8111156104045761040361020e565b5b61041086828701610361565b9150509250925092565b61042381610213565b82525050565b600081519050919050565b600082825260208201905092915050565b60005b83811015610463578082015181840152602081019050610448565b83811115610472576000848401525b50505050565b600061048382610429565b61048d8185610434565b935061049d818560208601610445565b6104a681610253565b840191505092915050565b60006060820190506104c6600083018661041a565b81810360208301526104d88185610478565b905081810360408301526104ec8184610478565b9050949350505050565b7f4e487b7100000000000000000000000000000000000000000000000000000000600052602260045260246000fd5b6000600282049050600182168061053d57607f821691505b6020821081036105505761054f6104f6565b5b50919050565b60008190508160005260206000209050919050565b60006020601f8301049050919050565b600082821b905092915050565b6000600883026105b87fffffffffffffffffffffffffffffffffffffffffffffffffffffffffffffffff8261057b565b6105c2868361057b565b95508019841693508086168417925050509392505050565b6000819050919050565b60006105ff6105fa6105f584610213565b6105da565b610213565b9050919050565b6000819050919050565b610619836105e4565b61062d61062582610606565b848454610588565b825550505050565b600090565b610642610635565b61064d818484610610565b505050565b5b818110156106715761066660008261063a565b600181019050610653565b5050565b601f8211156106b65761068781610556565b6106908461056b565b8101602085101561069f578190505b6106b36106ab8561056b565b830182610652565b50505b505050565b600082821c905092915050565b60006106d9600019846008026106bb565b1980831691505092915050565b60006106f283836106c8565b9150826002028217905092915050565b61070b82610429565b67ffffffffffffffff81111561072457610723610264565b5b61072e8254610525565b610739828285610675565b600060209050601f83116001811461076c576000841561075a578287015190505b61076485826106e6565b8655506107cc565b601f19841661077a86610556565b60005b828110156107a25784890151825560018201915060208501945060208101905061077d565b868310156107bf57848901516107bb601f8916826106c8565b8355505b6001600288020188555050505b50505050505056fea26469706673582212201be0cd8502f00b8f1aa7a0ef69314a9e1ea7812bb6363bf11c8870fcf6ecc1eb64736f6c634300080f0033",
  "immutableReferences": {},
  "source": "// SPDX-License-Identifier: GPL-3.0\r\n\r\npragma solidity >=0.4.22 <0.9.0;\r\n\r\n\r\ncontract Funder{\r\n\r\nstruct Body{\r\n\r\n\r\nuint age;\r\n\r\nstring name;\r\n\r\n\r\nstring place;\r\n\r\n}\r\n\r\n\r\nBody public body;\r\n\r\nfunction Get(uint _age , string memory _name , string memory _place)public{\r\n\r\n\r\n\r\nBody memory emp=Body(_age , _name , _place);\r\n\r\nbody=emp;\r\n\r\n}\r\n\r\n}",
  "sourcePath": "C:\\Users\\jugal\\OneDrive\\Documents\\BlockChain_ALL\\project\\struct\\contracts\\Funder.sol",
  "compiler": {
    "name": "solc",
    "version": "0.8.15+commit.e14f2714.Emscripten.clang"
  },
  "schemaVersion": "3.4.8",
  "updatedAt": "2022-07-14T03:30:38.299Z",
  "devdoc": {
    "kind": "dev",
    "methods": {},
    "version": 1
  },
  "userdoc": {
    "kind": "user",
    "methods": {},
    "version": 1
  }
}